{
  "contractName": "EmployeeBGHistory",
  "abi": [
    {
      "constant": true,
      "inputs": [
        {
          "name": "",
          "type": "uint256"
        }
      ],
      "name": "employees",
      "outputs": [
        {
          "name": "id",
          "type": "bytes1"
        },
        {
          "name": "name",
          "type": "string"
        },
        {
          "name": "age",
          "type": "uint256"
        },
        {
          "name": "communicationAddress",
          "type": "string"
        }
      ],
      "payable": false,
      "stateMutability": "view",
      "type": "function"
    },
    {
      "inputs": [],
      "payable": false,
      "stateMutability": "nonpayable",
      "type": "constructor"
    },
    {
      "constant": true,
      "inputs": [],
      "name": "test",
      "outputs": [
        {
          "name": "",
          "type": "string"
        }
      ],
      "payable": false,
      "stateMutability": "view",
      "type": "function"
    },
    {
      "constant": true,
      "inputs": [
        {
          "name": "_name",
          "type": "string"
        }
      ],
      "name": "getEmployeeHistory",
      "outputs": [
        {
          "name": "",
          "type": "string"
        }
      ],
      "payable": false,
      "stateMutability": "view",
      "type": "function"
    },
    {
      "constant": true,
      "inputs": [
        {
          "name": "addr",
          "type": "address"
        }
      ],
      "name": "getBalanceInEth",
      "outputs": [
        {
          "name": "",
          "type": "int256"
        }
      ],
      "payable": false,
      "stateMutability": "view",
      "type": "function"
    }
  ],
  "bytecode": "0x608060405234801561001057600080fd5b5061070f806100206000396000f300608060405260043610610062576000357c0100000000000000000000000000000000000000000000000000000000900463ffffffff16806309f30ace146100675780634739326b146100a45780637bd703e8146100e4578063f8a8fd6d14610121575b600080fd5b34801561007357600080fd5b5061008e60048036036100899190810190610416565b61014c565b60405161009b9190610587565b60405180910390f35b3480156100b057600080fd5b506100cb60048036036100c69190810190610457565b61018b565b6040516100db9493929190610519565b60405180910390f35b3480156100f057600080fd5b5061010b600480360361010691908101906103ed565b610326565b604051610118919061056c565b60405180910390f35b34801561012d57600080fd5b50610136610332565b6040516101439190610587565b60405180910390f35b60606040805190810160405280601281526020017f7b6e616d653a27736f6d65206e616d65277d00000000000000000000000000008152509050919050565b60008181548110151561019a57fe5b90600052602060002090600402016000915090508060000160009054906101000a90047f01000000000000000000000000000000000000000000000000000000000000000290806001018054600181600116156101000203166002900480601f0160208091040260200160405190810160405280929190818152602001828054600181600116156101000203166002900480156102785780601f1061024d57610100808354040283529160200191610278565b820191906000526020600020905b81548152906001019060200180831161025b57829003601f168201915b505050505090806002015490806003018054600181600116156101000203166002900480601f01602080910402602001604051908101604052809291908181526020018280546001816001161561010002031660029004801561031c5780601f106102f15761010080835404028352916020019161031c565b820191906000526020600020905b8154815290600101906020018083116102ff57829003601f168201915b5050505050905084565b60006149589050919050565b60606040805190810160405280600681526020017f666f6f6261720000000000000000000000000000000000000000000000000000815250905090565b600061037b8235610658565b905092915050565b600082601f830112151561039657600080fd5b81356103a96103a4826105d6565b6105a9565b915080825260208301602083018583830111156103c557600080fd5b6103d0838284610682565b50505092915050565b60006103e58235610678565b905092915050565b6000602082840312156103ff57600080fd5b600061040d8482850161036f565b91505092915050565b60006020828403121561042857600080fd5b600082013567ffffffffffffffff81111561044257600080fd5b61044e84828501610383565b91505092915050565b60006020828403121561046957600080fd5b6000610477848285016103d9565b91505092915050565b61048981610618565b82525050565b61049881610644565b82525050565b60006104a98261060d565b8084526104bd816020860160208601610691565b6104c6816106c4565b602085010191505092915050565b60006104df82610602565b8084526104f3816020860160208601610691565b6104fc816106c4565b602085010191505092915050565b6105138161064e565b82525050565b600060808201905061052e6000830187610480565b818103602083015261054081866104d4565b905061054f604083018561050a565b818103606083015261056181846104d4565b905095945050505050565b6000602082019050610581600083018461048f565b92915050565b600060208201905081810360008301526105a1818461049e565b905092915050565b6000604051905081810181811067ffffffffffffffff821117156105cc57600080fd5b8060405250919050565b600067ffffffffffffffff8211156105ed57600080fd5b601f19601f8301169050602081019050919050565b600081519050919050565b600081519050919050565b60007fff0000000000000000000000000000000000000000000000000000000000000082169050919050565b6000819050919050565b6000819050919050565b600073ffffffffffffffffffffffffffffffffffffffff82169050919050565b6000819050919050565b82818337600083830152505050565b60005b838110156106af578082015181840152602081019050610694565b838111156106be576000848401525b50505050565b6000601f19601f83011690509190505600a265627a7a723058202a34b270380b4b0f78b097f3f54a3f5657667a608f24a3047f1208ad1ed31a816c6578706572696d656e74616cf50037",
  "source": "pragma solidity ^0.4.23;\npragma experimental ABIEncoderV2;\n\nimport \"./Employee.sol\";\n\ncontract EmployeeBGHistory {\n    constructor() public {\n        \n    }\n\n    //mapping(address => BgStructsContract.Employee) employees;\n    BgStructsContract.Employee[] public employees;\n\n    function test() public view returns (string){\n            return \"foobar\";\n    }\n\n    function getEmployeeHistory(string _name) public view returns (string) {\n        return \"{name:'some name'}\";\n    }\n\n    function getBalanceInEth(address addr) public view returns(int){\n            return 18776;\n    }\n}",
  "sourcePath": "/home/push/Work/Hakathon/bgv/bgv-etherium/contracts/EmployeeBGHistory.sol",
  "compiler": {
    "name": "solc",
    "version": "0.4.23+commit.124ca40d.Emscripten.clang"
  },
  "schemaVersion": "2.0.0",
  "updatedAt": "2018-05-25T14:36:08.621Z"
}