{
  "contractName": "EmployeeBGHistory",
  "abi": [
    {
      "constant": true,
      "inputs": [
        {
          "name": "",
          "type": "uint256"
        }
      ],
      "name": "employees",
      "outputs": [
        {
          "name": "id",
          "type": "bytes1"
        },
        {
          "name": "name",
          "type": "string"
        },
        {
          "name": "age",
          "type": "uint256"
        },
        {
          "name": "communicationAddress",
          "type": "string"
        }
      ],
      "payable": false,
      "stateMutability": "view",
      "type": "function"
    },
    {
      "inputs": [],
      "payable": false,
      "stateMutability": "nonpayable",
      "type": "constructor"
    },
    {
      "constant": true,
      "inputs": [],
      "name": "test",
      "outputs": [
        {
          "name": "",
          "type": "string"
        }
      ],
      "payable": false,
      "stateMutability": "pure",
      "type": "function"
    },
    {
      "constant": true,
      "inputs": [
        {
          "name": "_name",
          "type": "string"
        }
      ],
      "name": "getEmployeeHistory",
      "outputs": [
        {
          "components": [
            {
              "name": "id",
              "type": "bytes1"
            },
            {
              "name": "name",
              "type": "string"
            },
            {
              "name": "age",
              "type": "uint256"
            },
            {
              "name": "communicationAddress",
              "type": "string"
            }
          ],
          "name": "",
          "type": "tuple"
        }
      ],
      "payable": false,
      "stateMutability": "pure",
      "type": "function"
    }
  ],
  "bytecode": "0x608060405234801561001057600080fd5b5061076e806100206000396000f300608060405260043610610057576000357c0100000000000000000000000000000000000000000000000000000000900463ffffffff16806309f30ace1461005c5780634739326b14610099578063f8a8fd6d146100d9575b600080fd5b34801561006857600080fd5b50610083600480360361007e919081019061043d565b610104565b6040516100909190610610565b60405180910390f35b3480156100a557600080fd5b506100c060048036036100bb919081019061047e565b6101b0565b6040516100d0949392919061059b565b60405180910390f35b3480156100e557600080fd5b506100ee61034b565b6040516100fb91906105ee565b60405180910390f35b61010c610388565b60806040519081016040528060017f0100000000000000000000000000000000000000000000000000000000000000027effffffffffffffffffffffffffffffffffffffffffffffffffffffffffffff19168152602001838152602001600c81526020016040805190810160405280600c81526020017f736f6d65206164647265737300000000000000000000000000000000000000008152508152509050919050565b6000818154811015156101bf57fe5b90600052602060002090600402016000915090508060000160009054906101000a90047f01000000000000000000000000000000000000000000000000000000000000000290806001018054600181600116156101000203166002900480601f01602080910402602001604051908101604052809291908181526020018280546001816001161561010002031660029004801561029d5780601f106102725761010080835404028352916020019161029d565b820191906000526020600020905b81548152906001019060200180831161028057829003601f168201915b505050505090806002015490806003018054600181600116156101000203166002900480601f0160208091040260200160405190810160405280929190818152602001828054600181600116156101000203166002900480156103415780601f1061031657610100808354040283529160200191610341565b820191906000526020600020905b81548152906001019060200180831161032457829003601f168201915b5050505050905084565b60606040805190810160405280600681526020017f666f6f6261720000000000000000000000000000000000000000000000000000815250905090565b60806040519081016040528060007effffffffffffffffffffffffffffffffffffffffffffffffffffffffffffff191681526020016060815260200160008152602001606081525090565b600082601f83011215156103e657600080fd5b81356103f96103f48261065f565b610632565b9150808252602083016020830185838301111561041557600080fd5b6104208382846106e1565b50505092915050565b600061043582356106d7565b905092915050565b60006020828403121561044f57600080fd5b600082013567ffffffffffffffff81111561046957600080fd5b610475848285016103d3565b91505092915050565b60006020828403121561049057600080fd5b600061049e84828501610429565b91505092915050565b6104b0816106a1565b82525050565b60006104c182610696565b8084526104d58160208601602086016106f0565b6104de81610723565b602085010191505092915050565b60006104f78261068b565b80845261050b8160208601602086016106f0565b61051481610723565b602085010191505092915050565b600060808301600083015161053a60008601826104a7565b506020830151848203602086015261055282826104ec565b9150506040830151610567604086018261058c565b506060830151848203606086015261057f82826104ec565b9150508091505092915050565b610595816106cd565b82525050565b60006080820190506105b060008301876104a7565b81810360208301526105c281866104ec565b90506105d1604083018561058c565b81810360608301526105e381846104ec565b905095945050505050565b6000602082019050818103600083015261060881846104b6565b905092915050565b6000602082019050818103600083015261062a8184610522565b905092915050565b6000604051905081810181811067ffffffffffffffff8211171561065557600080fd5b8060405250919050565b600067ffffffffffffffff82111561067657600080fd5b601f19601f8301169050602081019050919050565b600081519050919050565b600081519050919050565b60007fff0000000000000000000000000000000000000000000000000000000000000082169050919050565b6000819050919050565b6000819050919050565b82818337600083830152505050565b60005b8381101561070e5780820151818401526020810190506106f3565b8381111561071d576000848401525b50505050565b6000601f19601f83011690509190505600a265627a7a72305820d097825aeb42b23ce62c5ebead51366ca88e1ae09700c1b8e7ee920ab19e9c0c6c6578706572696d656e74616cf50037",
  "source": "pragma solidity ^0.4.23;\npragma experimental ABIEncoderV2;\n\nimport \"./Employee.sol\";\n\ncontract EmployeeBGHistory {\n    constructor() public {\n        \n    }\n\n    //mapping(address => BgStructsContract.Employee) employees;\n    BgStructsContract.Employee[] public employees;\n\n    function test() public pure returns (string){\n            return \"foobar\";\n    }\n\n    function getEmployeeHistory(string _name) public pure returns (BgStructsContract.Employee) {\n        return BgStructsContract.Employee({name: _name, id: 1, age: 12, communicationAddress: \"some address\"});\n    }\n}",
  "sourcePath": "/home/push/Work/Hakathon/bgv/bgv-etherium/contracts/EmployeeBGHistory.sol",
  "compiler": {
    "name": "solc",
    "version": "0.4.23+commit.124ca40d.Emscripten.clang"
  },
  "schemaVersion": "2.0.0",
  "updatedAt": "2018-05-25T13:14:11.161Z"
}